S0220000554152545F333238505F426F7363685F50726F74657573382E392E737265633C
S11300000C9434000C9449000C9449000C9449005D
S11300100C9449000C9449000C9449000C94490038
S11300200C9449000C9449000C9449000C94490028
S11300300C9449000C9449000C9449000C94490018
S11300400C9449000C9449000C9449000C94490008
S11300500C9449000C9449000C9449000C944900F8
S11300600C9449000C94490011241FBECFEFD8E032
S1130070DEBFCDBF11E0A0E0B1E0EEEDF7E002C0DD
S113008005900D92A839B107D9F70E94DB010C94B1
S1130090ED030C94000090E0982F8827862B089598
S11300A090E0982F8827862B0895CF93DF93C82F4D
S11300B0D62F8EEE0E94B602811116C08C2F0E949C
S11300C0D702882321F00E94D302C2E00EC08D2FF4
S11300D00E94D702C82F882321F00E94D302C3E0D4
S11300E004C00E94D30201C0C1E08C2FDF91CF91E4
S11300F00895CF92DF92FF920F931F93CF93DF93D4
S1130100C82F8B01D42F8EEE0E94B602811133C00A
S11301108C2F0E94D702882331F00E94D302689466
S1130120FF24F1F82AC08FEE0E94B602F82E88232D
S113013081F00E94D3020F2EF3E0FF2EF02D1DC09C
S11301406801CC0ED11C0E94E902F6018083CF5FC6
S113015001C0C0E02C2F30E08D2F90E001972817CC
S1130160390774F3EC01C00FD11F0E94F302888396
S11301700E94D30202C0FF24F3948F2DDF91CF910C
S11301801F910F91FF90DF90CF9008950F931F93CD
S1130190CF93DF93CDB7DEB766970FB6F894DEBF83
S11301A00FBECDBF8C0146E1BE016F5F7F4F8AEA6F
S11301B00E94790081114EC06A8189810E944B009E
S11301C0F801918380836C818B810E944B00F8013C
S11301D0938382836E818D810E944B00F801958305
S11301E0848368858F810E945000F801918B808BF5
S11301F06A8589850E945000F801938B828B6C85F7
S11302008B850E945000F801958B848B6E858D85BB
S11302100E944B00F8019783868368898F850E942A
S11302204B00F801918780876A8989890E944B0075
S1130230F801938782876C898B890E944B00F801AF
S1130240958784876E898D890E944B00F801978772
S1130250868780E066960FB6F894DEBF0FBECDBFEA
S1130260DF91CF911F910F9108950F931F93CF9317
S1130270DF9300D0CDB7DEB78C016EE284EF0E942D
S1130280550081111FC081EE94E00197F1F700C081
S1130290000042E0BE016F5F7F4F86EF0E9479004D
S11302A0811110C0898190E0982F88272A81822BA0
S11302B0092E000CAA0BBB0BF80180839183A28347
S11302C0B38380E00F900F90DF91CF911F910F9136
S11302D00895FF920F931F93CF93DF9300D01F9243
S11302E0CDB7DEB7F82E8B01682F6295660F660FC7
S11302F0607C6C5C84EF0E945500811153C0F11046
S113030007C081EE94E00197F1F700C000001AC025
S113031091E0F91207C0EFECF7E03197F1F700C074
S1130320000010C0F2E0FF1207C08BEA9DE00197C5
S1130330F1F700C0000006C0E3E6F9E13197F1F7F8
S113034000C0000043E0BE016F5F7F4F86EF0E9454
S11303507900811127C0898190E0A0E0B0E0BC0160
S1130360552744279A81892F90E0A0E0B0E0BA2F66
S1130370A92F982F8827842B952BA62BB72B2B815D
S1130380822B28E030E02F19310904C0B595A795D8
S1130390979587952A95D2F7F80180839183A28354
S11303A0B38380E00F900F900F90DF91CF911F9156
S11303B00F91FF900895CF93DF93CDB7DEB76E977B
S11303C00FB6F894DEBF0FBECDBF0E94AD0260E849
S11303D075E280E090E00E94FD0280E091E00E94DE
S11303E08A03CE0101960E94C600882349F0482F53
S11303F050E060E070E088E191E00E949703FFCF55
S113040049815A81052E000C660B770B89E291E035
S11304100E9497034B815C81052E000C660B770BC1
S11304208EE291E00E9497034D815E81052E000CBF
S1130430660B770B83E391E00E94970349895A89FD
S113044060E070E088E391E00E9497034B895C8947
S113045060E070E08DE391E00E9497034D895E892E
S113046060E070E082E491E00E9497034F81588538
S1130470052E000C660B770B87E491E00E9497032E
S113048049855A85052E000C660B770B8CE491E0A8
S11304900E9497034B855C85052E000C660B770B39
S11304A081E591E00E9497034D855E85052E000C41
S11304B0660B770B86E591E00E9497034F85588978
S11304C0052E000C660B770B8BE591E00E949703D9
S11304D0CE0147960E943501882349F0482F50E009
S11304E060E070E080E691E00E949703FFCFBE01D8
S11304F0655E7F4F80E00E946901882349F0482FA0
S113050050E060E070E08EE691E00E949703FFCF38
S11305104F89588D698D7A8D8CE791E00E949703FD
S11305204B8D5C8D6D8D7E8D80E891E00E949703EC
S113053040E050E0BA0184E891E00E94970389E822
S113054091E00E948A032FE38DE093E021508040E4
S11305509040E1F700C00000F6CF1092B90082E0AD
S11305608093B80084E08093BC00089594EA90934B
S1130570BC009091BC009923E4F78093BB0084E80D
S11305808093BC008091BC008823E4F78091B9007B
S1130590887F883121F0803421F480E0089580E060
S11305A0089581E0089584E98093BC0008958093C0
S11305B0BB0084E88093BC008091BC008823E4F7EE
S11305C08091B900887F883211F081E0089580E03D
S11305D0089584EC8093BC008091BC008823E4F7E8
S11305E08091BB00089584E88093BC008091BC0096
S11305F08823E4F78091BB00089522E02093C00093
S1130600DC01CB01880F991FAA1FBB1F880F991FFC
S1130610AA1FBB1F9C01AD01220F331F441F551F8E
S113062060E472E48FE090E00E94AC032150310951
S11306303093C5002093C40088E08093C10086E015
S11306408093C20008959091C00095FFFCCF8093E1
S1130650C6000895CF92DF92EF92FF921F93CF933B
S1130660DF93CDB7DEB760970FB6F894DEBF0FBE49
S1130670CDBF6B017C01611571058105910521F4E4
S113068080E30E94230338C099235CF48DE20E9426
S11306902303F094E094D094C094C11CD11CE11CB9
S11306A0F11C10E015C0C701B6012AE030E040E0BB
S11306B050E00E94CE03E1E0F0E0EC0FFD1FE10FFB
S11306C0F11D605D6083C22ED32EE42EF52E1F5FD4
S11306D01C141D041E041F046CF4103120F30AC002
S11306E01150E1E0F0E0EC0FFD1FE10FF11D8081FE
S11306F00E9423031111F4CF60960FB6F894DEBF65
S11307000FBECDBFDF91CF911F91FF90EF90DF908F
S1130710CF900895CF93DF93EC0103C021960E94FC
S1130720230388818111FACFDF91CF910895CF926D
S1130730DF92EF92FF926A017B010E948A03C70154
S1130740B6010E942A0384E991E00E948A03FF9083
S1130750EF90DF90CF900895A1E21A2EAA1BBB1B45
S1130760FD010DC0AA1FBB1FEE1FFF1FA217B30779
S1130770E407F50720F0A21BB30BE40BF50B661F8F
S1130780771F881F991F1A9469F760957095809553
S113079090959B01AC01BD01CF010895052E97FBF7
S11307A01EF400940E94E50357FD07D00E94AC0399
S11307B007FC03D04EF40C94E50350954095309516
S11307C021953F4F4F4F5F4F0895909580957095B9
S11107D061957F4F8F4F9F4F0895F894FFCF90
S11307DE0D0A3D3D3D20424D503138302044554D9B
S11307EE50203D3D3D0D0A004552524F2063616C31
S11307FE696220636F64653D004143313D004143AE
S113080E323D004143333D004143343D00414335C5
S113081E3D004143363D004231203D004232203DF1
S113082E004D42203D004D43203D004D44203D00EF
S113083E4552524F20555420636F64653D00455216
S113084E524F20555020636F64653D0055543D0052
S113085E55503D006F73733D003D3D3D2046494D5F
S10B086E203D3D3D0D0A000090
S9030000FC
